{
  "contractName": "Platform",
  "abi": [
    {
      "inputs": [],
      "stateMutability": "nonpayable",
      "type": "constructor"
    },
    {
      "anonymous": false,
      "inputs": [
        {
          "indexed": true,
          "internalType": "address",
          "name": "account",
          "type": "address"
        },
        {
          "indexed": true,
          "internalType": "address",
          "name": "operator",
          "type": "address"
        },
        {
          "indexed": false,
          "internalType": "bool",
          "name": "approved",
          "type": "bool"
        }
      ],
      "name": "ApprovalForAll",
      "type": "event"
    },
    {
      "anonymous": false,
      "inputs": [
        {
          "indexed": true,
          "internalType": "address",
          "name": "previousOwner",
          "type": "address"
        },
        {
          "indexed": true,
          "internalType": "address",
          "name": "newOwner",
          "type": "address"
        }
      ],
      "name": "OwnershipTransferred",
      "type": "event"
    },
    {
      "anonymous": false,
      "inputs": [
        {
          "indexed": true,
          "internalType": "address",
          "name": "operator",
          "type": "address"
        },
        {
          "indexed": true,
          "internalType": "address",
          "name": "from",
          "type": "address"
        },
        {
          "indexed": true,
          "internalType": "address",
          "name": "to",
          "type": "address"
        },
        {
          "indexed": false,
          "internalType": "uint256[]",
          "name": "ids",
          "type": "uint256[]"
        },
        {
          "indexed": false,
          "internalType": "uint256[]",
          "name": "values",
          "type": "uint256[]"
        }
      ],
      "name": "TransferBatch",
      "type": "event"
    },
    {
      "anonymous": false,
      "inputs": [
        {
          "indexed": true,
          "internalType": "address",
          "name": "operator",
          "type": "address"
        },
        {
          "indexed": true,
          "internalType": "address",
          "name": "from",
          "type": "address"
        },
        {
          "indexed": true,
          "internalType": "address",
          "name": "to",
          "type": "address"
        },
        {
          "indexed": false,
          "internalType": "uint256",
          "name": "id",
          "type": "uint256"
        },
        {
          "indexed": false,
          "internalType": "uint256",
          "name": "value",
          "type": "uint256"
        }
      ],
      "name": "TransferSingle",
      "type": "event"
    },
    {
      "anonymous": false,
      "inputs": [
        {
          "indexed": false,
          "internalType": "string",
          "name": "value",
          "type": "string"
        },
        {
          "indexed": true,
          "internalType": "uint256",
          "name": "id",
          "type": "uint256"
        }
      ],
      "name": "URI",
      "type": "event"
    },
    {
      "inputs": [
        {
          "internalType": "address",
          "name": "account",
          "type": "address"
        },
        {
          "internalType": "uint256",
          "name": "id",
          "type": "uint256"
        }
      ],
      "name": "balanceOf",
      "outputs": [
        {
          "internalType": "uint256",
          "name": "",
          "type": "uint256"
        }
      ],
      "stateMutability": "view",
      "type": "function"
    },
    {
      "inputs": [
        {
          "internalType": "address[]",
          "name": "accounts",
          "type": "address[]"
        },
        {
          "internalType": "uint256[]",
          "name": "ids",
          "type": "uint256[]"
        }
      ],
      "name": "balanceOfBatch",
      "outputs": [
        {
          "internalType": "uint256[]",
          "name": "",
          "type": "uint256[]"
        }
      ],
      "stateMutability": "view",
      "type": "function"
    },
    {
      "inputs": [
        {
          "internalType": "address",
          "name": "account",
          "type": "address"
        },
        {
          "internalType": "address",
          "name": "operator",
          "type": "address"
        }
      ],
      "name": "isApprovedForAll",
      "outputs": [
        {
          "internalType": "bool",
          "name": "",
          "type": "bool"
        }
      ],
      "stateMutability": "view",
      "type": "function"
    },
    {
      "inputs": [],
      "name": "owner",
      "outputs": [
        {
          "internalType": "address",
          "name": "",
          "type": "address"
        }
      ],
      "stateMutability": "view",
      "type": "function"
    },
    {
      "inputs": [
        {
          "internalType": "uint256",
          "name": "",
          "type": "uint256"
        },
        {
          "internalType": "uint256",
          "name": "",
          "type": "uint256"
        }
      ],
      "name": "publishedProposals",
      "outputs": [
        {
          "internalType": "address",
          "name": "",
          "type": "address"
        }
      ],
      "stateMutability": "view",
      "type": "function"
    },
    {
      "inputs": [],
      "name": "renounceOwnership",
      "outputs": [],
      "stateMutability": "nonpayable",
      "type": "function"
    },
    {
      "inputs": [
        {
          "internalType": "address",
          "name": "from",
          "type": "address"
        },
        {
          "internalType": "address",
          "name": "to",
          "type": "address"
        },
        {
          "internalType": "uint256[]",
          "name": "ids",
          "type": "uint256[]"
        },
        {
          "internalType": "uint256[]",
          "name": "amounts",
          "type": "uint256[]"
        },
        {
          "internalType": "bytes",
          "name": "data",
          "type": "bytes"
        }
      ],
      "name": "safeBatchTransferFrom",
      "outputs": [],
      "stateMutability": "nonpayable",
      "type": "function"
    },
    {
      "inputs": [
        {
          "internalType": "address",
          "name": "from",
          "type": "address"
        },
        {
          "internalType": "address",
          "name": "to",
          "type": "address"
        },
        {
          "internalType": "uint256",
          "name": "id",
          "type": "uint256"
        },
        {
          "internalType": "uint256",
          "name": "amount",
          "type": "uint256"
        },
        {
          "internalType": "bytes",
          "name": "data",
          "type": "bytes"
        }
      ],
      "name": "safeTransferFrom",
      "outputs": [],
      "stateMutability": "nonpayable",
      "type": "function"
    },
    {
      "inputs": [
        {
          "internalType": "address",
          "name": "operator",
          "type": "address"
        },
        {
          "internalType": "bool",
          "name": "approved",
          "type": "bool"
        }
      ],
      "name": "setApprovalForAll",
      "outputs": [],
      "stateMutability": "nonpayable",
      "type": "function"
    },
    {
      "inputs": [
        {
          "internalType": "bytes4",
          "name": "interfaceId",
          "type": "bytes4"
        }
      ],
      "name": "supportsInterface",
      "outputs": [
        {
          "internalType": "bool",
          "name": "",
          "type": "bool"
        }
      ],
      "stateMutability": "view",
      "type": "function"
    },
    {
      "inputs": [
        {
          "internalType": "address",
          "name": "newOwner",
          "type": "address"
        }
      ],
      "name": "transferOwnership",
      "outputs": [],
      "stateMutability": "nonpayable",
      "type": "function"
    },
    {
      "inputs": [
        {
          "internalType": "uint256",
          "name": "",
          "type": "uint256"
        }
      ],
      "name": "uri",
      "outputs": [
        {
          "internalType": "string",
          "name": "",
          "type": "string"
        }
      ],
      "stateMutability": "view",
      "type": "function"
    },
    {
      "inputs": [
        {
          "internalType": "string",
          "name": "newuri",
          "type": "string"
        }
      ],
      "name": "setURI",
      "outputs": [],
      "stateMutability": "nonpayable",
      "type": "function"
    },
    {
      "inputs": [
        {
          "internalType": "uint256",
          "name": "id",
          "type": "uint256"
        }
      ],
      "name": "getSoftcapPercentage",
      "outputs": [
        {
          "internalType": "uint256",
          "name": "",
          "type": "uint256"
        }
      ],
      "stateMutability": "view",
      "type": "function"
    },
    {
      "inputs": [
        {
          "internalType": "uint256",
          "name": "id",
          "type": "uint256"
        },
        {
          "internalType": "uint256",
          "name": "softcapPercentage",
          "type": "uint256"
        }
      ],
      "name": "setSoftcapPercentage",
      "outputs": [],
      "stateMutability": "nonpayable",
      "type": "function"
    },
    {
      "inputs": [
        {
          "internalType": "uint256",
          "name": "id",
          "type": "uint256"
        }
      ],
      "name": "getCirculatingSupply",
      "outputs": [
        {
          "internalType": "uint256",
          "name": "",
          "type": "uint256"
        }
      ],
      "stateMutability": "view",
      "type": "function"
    },
    {
      "inputs": [
        {
          "internalType": "uint256",
          "name": "id",
          "type": "uint256"
        }
      ],
      "name": "getMintOwner",
      "outputs": [
        {
          "internalType": "address",
          "name": "",
          "type": "address"
        }
      ],
      "stateMutability": "view",
      "type": "function"
    },
    {
      "inputs": [
        {
          "internalType": "uint256",
          "name": "id",
          "type": "uint256"
        },
        {
          "internalType": "address",
          "name": "contractAddress",
          "type": "address"
        }
      ],
      "name": "addProposal",
      "outputs": [],
      "stateMutability": "nonpayable",
      "type": "function"
    },
    {
      "inputs": [
        {
          "internalType": "uint256",
          "name": "id",
          "type": "uint256"
        }
      ],
      "name": "getProposalLength",
      "outputs": [
        {
          "internalType": "uint256",
          "name": "",
          "type": "uint256"
        }
      ],
      "stateMutability": "view",
      "type": "function"
    },
    {
      "inputs": [
        {
          "internalType": "uint256",
          "name": "id",
          "type": "uint256"
        },
        {
          "internalType": "uint256",
          "name": "index",
          "type": "uint256"
        }
      ],
      "name": "getProposalAddress",
      "outputs": [
        {
          "internalType": "address",
          "name": "",
          "type": "address"
        }
      ],
      "stateMutability": "view",
      "type": "function"
    },
    {
      "inputs": [
        {
          "internalType": "address",
          "name": "account",
          "type": "address"
        },
        {
          "internalType": "uint256",
          "name": "id",
          "type": "uint256"
        },
        {
          "internalType": "uint256",
          "name": "amount",
          "type": "uint256"
        },
        {
          "internalType": "bytes",
          "name": "data",
          "type": "bytes"
        }
      ],
      "name": "mint",
      "outputs": [],
      "stateMutability": "nonpayable",
      "type": "function"
    },
    {
      "inputs": [
        {
          "internalType": "address",
          "name": "account",
          "type": "address"
        },
        {
          "internalType": "uint256",
          "name": "id",
          "type": "uint256"
        },
        {
          "internalType": "uint256",
          "name": "value",
          "type": "uint256"
        }
      ],
      "name": "burn",
      "outputs": [],
      "stateMutability": "nonpayable",
      "type": "function"
    }
  ],
  "bytecode": "0x60806040523480156200001157600080fd5b506040518060200160405280600081525062000033816200005a60201b60201c565b5062000054620000486200007660201b60201c565b6200007e60201b60201c565b62000259565b80600290805190602001906200007292919062000144565b5050565b600033905090565b6000600360009054906101000a900473ffffffffffffffffffffffffffffffffffffffff16905081600360006101000a81548173ffffffffffffffffffffffffffffffffffffffff021916908373ffffffffffffffffffffffffffffffffffffffff1602179055508173ffffffffffffffffffffffffffffffffffffffff168173ffffffffffffffffffffffffffffffffffffffff167f8be0079c531659141344cd1fd0a4f28419497f9722a3daafe3b4186f6b6457e060405160405180910390a35050565b8280546200015290620001f4565b90600052602060002090601f016020900481019282620001765760008555620001c2565b82601f106200019157805160ff1916838001178555620001c2565b82800160010185558215620001c2579182015b82811115620001c1578251825591602001919060010190620001a4565b5b509050620001d19190620001d5565b5090565b5b80821115620001f0576000816000905550600101620001d6565b5090565b600060028204905060018216806200020d57607f821691505b602082108114156200022457620002236200022a565b5b50919050565b7f4e487b7100000000000000000000000000000000000000000000000000000000600052602260045260246000fd5b613c3f80620002696000396000f3fe608060405234801561001057600080fd5b50600436106101415760003560e01c80636706312f116100b8578063adcfd3221161007c578063adcfd322146103aa578063e985e9c5146103da578063f242432a1461040a578063f2fde38b14610426578063f5298aca14610442578063f5929fc81461045e57610141565b80636706312f1461031a578063715018a61461034a578063731133e9146103545780638da5cb5b14610370578063a22cb4651461038e57610141565b8063215845c41161010a578063215845c4146102225780632eb2c2d61461025257806330f6dabc1461026e57806341b0953c1461029e5780634e1273f4146102ba5780635a8d69c1146102ea57610141565b8062fdd58e1461014657806301ffc9a71461017657806302fe5305146101a65780630e89341c146101c25780631425d1ef146101f2575b600080fd5b610160600480360381019061015b91906128a5565b61047a565b60405161016d9190613207565b60405180910390f35b610190600480360381019061018b9190612a33565b610543565b60405161019d9190612fea565b60405180910390f35b6101c060048036038101906101bb9190612a8d565b610625565b005b6101dc60048036038101906101d79190612ad6565b6106ad565b6040516101e99190613005565b60405180910390f35b61020c60048036038101906102079190612ad6565b610741565b6040516102199190612eb4565b60405180910390f35b61023c60048036038101906102379190612b43565b61077e565b6040516102499190612eb4565b60405180910390f35b61026c600480360381019061026791906126ff565b6107cc565b005b61028860048036038101906102839190612ad6565b61086d565b6040516102959190613207565b60405180910390f35b6102b860048036038101906102b39190612b03565b61088a565b005b6102d460048036038101906102cf91906129bb565b6109d7565b6040516102e19190612f91565b60405180910390f35b61030460048036038101906102ff9190612ad6565b610af0565b6040516103119190613207565b60405180910390f35b610334600480360381019061032f9190612ad6565b610b54565b6040516103419190613207565b60405180910390f35b610352610b74565b005b61036e60048036038101906103699190612938565b610bfc565b005b610378610ce6565b6040516103859190612eb4565b60405180910390f35b6103a860048036038101906103a39190612865565b610d10565b005b6103c460048036038101906103bf9190612b43565b610d26565b6040516103d19190612eb4565b60405180910390f35b6103f460048036038101906103ef91906126bf565b610dd1565b6040516104019190612fea565b60405180910390f35b610424600480360381019061041f91906127ce565b610e65565b005b610440600480360381019061043b9190612665565b610f06565b005b61045c600480360381019061045791906128e5565b610ffe565b005b61047860048036038101906104739190612b43565b6110a5565b005b60008073ffffffffffffffffffffffffffffffffffffffff168373ffffffffffffffffffffffffffffffffffffffff1614156104eb576040517f08c379a00000000000000000000000000000000000000000000000000000000081526004016104e290613067565b60405180910390fd5b60008083815260200190815260200160002060008473ffffffffffffffffffffffffffffffffffffffff1673ffffffffffffffffffffffffffffffffffffffff16815260200190815260200160002054905092915050565b60007fd9b67a26000000000000000000000000000000000000000000000000000000007bffffffffffffffffffffffffffffffffffffffffffffffffffffffff1916827bffffffffffffffffffffffffffffffffffffffffffffffffffffffff1916148061060e57507f0e89341c000000000000000000000000000000000000000000000000000000007bffffffffffffffffffffffffffffffffffffffffffffffffffffffff1916827bffffffffffffffffffffffffffffffffffffffffffffffffffffffff1916145b8061061e575061061d8261113d565b5b9050919050565b61062d6111a7565b73ffffffffffffffffffffffffffffffffffffffff1661064b610ce6565b73ffffffffffffffffffffffffffffffffffffffff16146106a1576040517f08c379a000000000000000000000000000000000000000000000000000000000815260040161069890613167565b60405180910390fd5b6106aa816111af565b50565b6060600280546106bc906134db565b80601f01602080910402602001604051908101604052809291908181526020018280546106e8906134db565b80156107355780601f1061070a57610100808354040283529160200191610735565b820191906000526020600020905b81548152906001019060200180831161071857829003601f168201915b50505050509050919050565b60006006600083815260200190815260200160002060009054906101000a900473ffffffffffffffffffffffffffffffffffffffff169050919050565b6007602052816000526040600020818154811061079a57600080fd5b906000526020600020016000915091509054906101000a900473ffffffffffffffffffffffffffffffffffffffff1681565b6107d46111a7565b73ffffffffffffffffffffffffffffffffffffffff168573ffffffffffffffffffffffffffffffffffffffff16148061081a5750610819856108146111a7565b610dd1565b5b610859576040517f08c379a000000000000000000000000000000000000000000000000000000000815260040161085090613107565b60405180910390fd5b61086685858585856111c9565b5050505050565b600060046000838152602001908152602001600020549050919050565b60008190503373ffffffffffffffffffffffffffffffffffffffff168173ffffffffffffffffffffffffffffffffffffffff16638da5cb5b6040518163ffffffff1660e01b815260040160206040518083038186803b1580156108ec57600080fd5b505afa158015610900573d6000803e3d6000fd5b505050506040513d601f19601f820116820180604052508101906109249190612692565b73ffffffffffffffffffffffffffffffffffffffff1614156109d2576000151561094e84846114dd565b151514156109d157600060076000858152602001908152602001600020905080839080600181540180825580915050600190039060005260206000200160009091909190916101000a81548173ffffffffffffffffffffffffffffffffffffffff021916908373ffffffffffffffffffffffffffffffffffffffff160217905550505b5b505050565b60608151835114610a1d576040517f08c379a0000000000000000000000000000000000000000000000000000000008152600401610a14906131a7565b60405180910390fd5b6000835167ffffffffffffffff811115610a3a57610a39613614565b5b604051908082528060200260200182016040528015610a685781602001602082028036833780820191505090505b50905060005b8451811015610ae557610ab5858281518110610a8d57610a8c6135e5565b5b6020026020010151858381518110610aa857610aa76135e5565b5b602002602001015161047a565b828281518110610ac857610ac76135e5565b5b60200260200101818152505080610ade9061353e565b9050610a6e565b508091505092915050565b6000610b2f6006600084815260200190815260200160002060009054906101000a900473ffffffffffffffffffffffffffffffffffffffff168361047a565b6005600084815260200190815260200160002054610b4d91906133f1565b9050919050565b600060076000838152602001908152602001600020805490509050919050565b610b7c6111a7565b73ffffffffffffffffffffffffffffffffffffffff16610b9a610ce6565b73ffffffffffffffffffffffffffffffffffffffff1614610bf0576040517f08c379a0000000000000000000000000000000000000000000000000000000008152600401610be790613167565b60405180910390fd5b610bfa60006115af565b565b610c046111a7565b73ffffffffffffffffffffffffffffffffffffffff16610c22610ce6565b73ffffffffffffffffffffffffffffffffffffffff1614610c78576040517f08c379a0000000000000000000000000000000000000000000000000000000008152600401610c6f90613167565b60405180910390fd5b610c8484848484611675565b610c8e838361180b565b836006600085815260200190815260200160002060006101000a81548173ffffffffffffffffffffffffffffffffffffffff021916908373ffffffffffffffffffffffffffffffffffffffff16021790555050505050565b6000600360009054906101000a900473ffffffffffffffffffffffffffffffffffffffff16905090565b610d22610d1b6111a7565b838361184c565b5050565b600080600090505b6007600085815260200190815260200160002080549050811015610dc55782811415610db2576000600760008681526020019081526020016000208481548110610d7b57610d7a6135e5565b5b9060005260206000200160009054906101000a900473ffffffffffffffffffffffffffffffffffffffff1690508092505050610dcb565b8080610dbd9061353e565b915050610d2e565b50600090505b92915050565b6000600160008473ffffffffffffffffffffffffffffffffffffffff1673ffffffffffffffffffffffffffffffffffffffff16815260200190815260200160002060008373ffffffffffffffffffffffffffffffffffffffff1673ffffffffffffffffffffffffffffffffffffffff16815260200190815260200160002060009054906101000a900460ff16905092915050565b610e6d6111a7565b73ffffffffffffffffffffffffffffffffffffffff168573ffffffffffffffffffffffffffffffffffffffff161480610eb35750610eb285610ead6111a7565b610dd1565b5b610ef2576040517f08c379a0000000000000000000000000000000000000000000000000000000008152600401610ee9906130c7565b60405180910390fd5b610eff85858585856119b9565b5050505050565b610f0e6111a7565b73ffffffffffffffffffffffffffffffffffffffff16610f2c610ce6565b73ffffffffffffffffffffffffffffffffffffffff1614610f82576040517f08c379a0000000000000000000000000000000000000000000000000000000008152600401610f7990613167565b60405180910390fd5b600073ffffffffffffffffffffffffffffffffffffffff168173ffffffffffffffffffffffffffffffffffffffff161415610ff2576040517f08c379a0000000000000000000000000000000000000000000000000000000008152600401610fe990613087565b60405180910390fd5b610ffb816115af565b50565b6110066111a7565b73ffffffffffffffffffffffffffffffffffffffff168373ffffffffffffffffffffffffffffffffffffffff16148061104c575061104b836110466111a7565b610dd1565b5b61108b576040517f08c379a0000000000000000000000000000000000000000000000000000000008152600401611082906130c7565b60405180910390fd5b611096838383611c3b565b6110a08282611e58565b505050565b6110ad6111a7565b73ffffffffffffffffffffffffffffffffffffffff166110cb610ce6565b73ffffffffffffffffffffffffffffffffffffffff1614611121576040517f08c379a000000000000000000000000000000000000000000000000000000000815260040161111890613167565b60405180910390fd5b8060046000848152602001908152602001600020819055505050565b60007f01ffc9a7000000000000000000000000000000000000000000000000000000007bffffffffffffffffffffffffffffffffffffffffffffffffffffffff1916827bffffffffffffffffffffffffffffffffffffffffffffffffffffffff1916149050919050565b600033905090565b80600290805190602001906111c5929190612328565b5050565b815183511461120d576040517f08c379a0000000000000000000000000000000000000000000000000000000008152600401611204906131c7565b60405180910390fd5b600073ffffffffffffffffffffffffffffffffffffffff168473ffffffffffffffffffffffffffffffffffffffff16141561127d576040517f08c379a0000000000000000000000000000000000000000000000000000000008152600401611274906130e7565b60405180910390fd5b60006112876111a7565b9050611297818787878787611e99565b60005b84518110156114485760008582815181106112b8576112b76135e5565b5b6020026020010151905060008583815181106112d7576112d66135e5565b5b60200260200101519050600080600084815260200190815260200160002060008b73ffffffffffffffffffffffffffffffffffffffff1673ffffffffffffffffffffffffffffffffffffffff16815260200190815260200160002054905081811015611378576040517f08c379a000000000000000000000000000000000000000000000000000000000815260040161136f90613147565b60405180910390fd5b81810360008085815260200190815260200160002060008c73ffffffffffffffffffffffffffffffffffffffff1673ffffffffffffffffffffffffffffffffffffffff168152602001908152602001600020819055508160008085815260200190815260200160002060008b73ffffffffffffffffffffffffffffffffffffffff1673ffffffffffffffffffffffffffffffffffffffff168152602001908152602001600020600082825461142d919061339b565b92505081905550505050806114419061353e565b905061129a565b508473ffffffffffffffffffffffffffffffffffffffff168673ffffffffffffffffffffffffffffffffffffffff168273ffffffffffffffffffffffffffffffffffffffff167f4a39dc06d4c0dbc64b70af90fd698a233a518aa5d07e595d983b8c0526c8f7fb87876040516114bf929190612fb3565b60405180910390a46114d5818787878787611ea1565b505050505050565b600080600090505b60076000858152602001908152602001600020805490508110156115a3578273ffffffffffffffffffffffffffffffffffffffff1660076000868152602001908152602001600020828154811061153f5761153e6135e5565b5b9060005260206000200160009054906101000a900473ffffffffffffffffffffffffffffffffffffffff1673ffffffffffffffffffffffffffffffffffffffff1614156115905760019150506115a9565b808061159b9061353e565b9150506114e5565b50600090505b92915050565b6000600360009054906101000a900473ffffffffffffffffffffffffffffffffffffffff16905081600360006101000a81548173ffffffffffffffffffffffffffffffffffffffff021916908373ffffffffffffffffffffffffffffffffffffffff1602179055508173ffffffffffffffffffffffffffffffffffffffff168173ffffffffffffffffffffffffffffffffffffffff167f8be0079c531659141344cd1fd0a4f28419497f9722a3daafe3b4186f6b6457e060405160405180910390a35050565b600073ffffffffffffffffffffffffffffffffffffffff168473ffffffffffffffffffffffffffffffffffffffff1614156116e5576040517f08c379a00000000000000000000000000000000000000000000000000000000081526004016116dc906131e7565b60405180910390fd5b60006116ef6111a7565b90506117108160008761170188612088565b61170a88612088565b87611e99565b8260008086815260200190815260200160002060008773ffffffffffffffffffffffffffffffffffffffff1673ffffffffffffffffffffffffffffffffffffffff168152602001908152602001600020600082825461176f919061339b565b925050819055508473ffffffffffffffffffffffffffffffffffffffff16600073ffffffffffffffffffffffffffffffffffffffff168273ffffffffffffffffffffffffffffffffffffffff167fc3d58168c5ae7397731d063d5bbf3d657854427343f4c083240f7aacaa2d0f6287876040516117ed929190613222565b60405180910390a461180481600087878787612102565b5050505050565b6118318160056000858152602001908152602001600020546122e990919063ffffffff16565b60056000848152602001908152602001600020819055505050565b8173ffffffffffffffffffffffffffffffffffffffff168373ffffffffffffffffffffffffffffffffffffffff1614156118bb576040517f08c379a00000000000000000000000000000000000000000000000000000000081526004016118b290613187565b60405180910390fd5b80600160008573ffffffffffffffffffffffffffffffffffffffff1673ffffffffffffffffffffffffffffffffffffffff16815260200190815260200160002060008473ffffffffffffffffffffffffffffffffffffffff1673ffffffffffffffffffffffffffffffffffffffff16815260200190815260200160002060006101000a81548160ff0219169083151502179055508173ffffffffffffffffffffffffffffffffffffffff168373ffffffffffffffffffffffffffffffffffffffff167f17307eab39ab6107e8899845ad3d59bd9653f200f220920489ca2b5937696c31836040516119ac9190612fea565b60405180910390a3505050565b600073ffffffffffffffffffffffffffffffffffffffff168473ffffffffffffffffffffffffffffffffffffffff161415611a29576040517f08c379a0000000000000000000000000000000000000000000000000000000008152600401611a20906130e7565b60405180910390fd5b6000611a336111a7565b9050611a53818787611a4488612088565b611a4d88612088565b87611e99565b600080600086815260200190815260200160002060008873ffffffffffffffffffffffffffffffffffffffff1673ffffffffffffffffffffffffffffffffffffffff16815260200190815260200160002054905083811015611aea576040517f08c379a0000000000000000000000000000000000000000000000000000000008152600401611ae190613147565b60405180910390fd5b83810360008087815260200190815260200160002060008973ffffffffffffffffffffffffffffffffffffffff1673ffffffffffffffffffffffffffffffffffffffff168152602001908152602001600020819055508360008087815260200190815260200160002060008873ffffffffffffffffffffffffffffffffffffffff1673ffffffffffffffffffffffffffffffffffffffff1681526020019081526020016000206000828254611b9f919061339b565b925050819055508573ffffffffffffffffffffffffffffffffffffffff168773ffffffffffffffffffffffffffffffffffffffff168373ffffffffffffffffffffffffffffffffffffffff167fc3d58168c5ae7397731d063d5bbf3d657854427343f4c083240f7aacaa2d0f628888604051611c1c929190613222565b60405180910390a4611c32828888888888612102565b50505050505050565b600073ffffffffffffffffffffffffffffffffffffffff168373ffffffffffffffffffffffffffffffffffffffff161415611cab576040517f08c379a0000000000000000000000000000000000000000000000000000000008152600401611ca290613127565b60405180910390fd5b6000611cb56111a7565b9050611ce581856000611cc787612088565b611cd087612088565b60405180602001604052806000815250611e99565b600080600085815260200190815260200160002060008673ffffffffffffffffffffffffffffffffffffffff1673ffffffffffffffffffffffffffffffffffffffff16815260200190815260200160002054905082811015611d7c576040517f08c379a0000000000000000000000000000000000000000000000000000000008152600401611d73906130a7565b60405180910390fd5b82810360008086815260200190815260200160002060008773ffffffffffffffffffffffffffffffffffffffff1673ffffffffffffffffffffffffffffffffffffffff16815260200190815260200160002081905550600073ffffffffffffffffffffffffffffffffffffffff168573ffffffffffffffffffffffffffffffffffffffff168373ffffffffffffffffffffffffffffffffffffffff167fc3d58168c5ae7397731d063d5bbf3d657854427343f4c083240f7aacaa2d0f628787604051611e49929190613222565b60405180910390a45050505050565b611e7e8160056000858152602001908152602001600020546122ff90919063ffffffff16565b60056000848152602001908152602001600020819055505050565b505050505050565b611ec08473ffffffffffffffffffffffffffffffffffffffff16612315565b15612080578373ffffffffffffffffffffffffffffffffffffffff1663bc197c8187878686866040518663ffffffff1660e01b8152600401611f06959493929190612ecf565b602060405180830381600087803b158015611f2057600080fd5b505af1925050508015611f5157506040513d601f19601f82011682018060405250810190611f4e9190612a60565b60015b611ff757611f5d613643565b806308c379a01415611fba5750611f72613b17565b80611f7d5750611fbc565b806040517f08c379a0000000000000000000000000000000000000000000000000000000008152600401611fb19190613005565b60405180910390fd5b505b6040517f08c379a0000000000000000000000000000000000000000000000000000000008152600401611fee90613027565b60405180910390fd5b63bc197c8160e01b7bffffffffffffffffffffffffffffffffffffffffffffffffffffffff1916817bffffffffffffffffffffffffffffffffffffffffffffffffffffffff19161461207e576040517f08c379a000000000000000000000000000000000000000000000000000000000815260040161207590613047565b60405180910390fd5b505b505050505050565b60606000600167ffffffffffffffff8111156120a7576120a6613614565b5b6040519080825280602002602001820160405280156120d55781602001602082028036833780820191505090505b50905082816000815181106120ed576120ec6135e5565b5b60200260200101818152505080915050919050565b6121218473ffffffffffffffffffffffffffffffffffffffff16612315565b156122e1578373ffffffffffffffffffffffffffffffffffffffff1663f23a6e6187878686866040518663ffffffff1660e01b8152600401612167959493929190612f37565b602060405180830381600087803b15801561218157600080fd5b505af19250505080156121b257506040513d601f19601f820116820180604052508101906121af9190612a60565b60015b612258576121be613643565b806308c379a0141561221b57506121d3613b17565b806121de575061221d565b806040517f08c379a00000000000000000000000000000000000000000000000000000000081526004016122129190613005565b60405180910390fd5b505b6040517f08c379a000000000000000000000000000000000000000000000000000000000815260040161224f90613027565b60405180910390fd5b63f23a6e6160e01b7bffffffffffffffffffffffffffffffffffffffffffffffffffffffff1916817bffffffffffffffffffffffffffffffffffffffffffffffffffffffff1916146122df576040517f08c379a00000000000000000000000000000000000000000000000000000000081526004016122d690613047565b60405180910390fd5b505b505050505050565b600081836122f7919061339b565b905092915050565b6000818361230d91906133f1565b905092915050565b600080823b905060008111915050919050565b828054612334906134db565b90600052602060002090601f016020900481019282612356576000855561239d565b82601f1061236f57805160ff191683800117855561239d565b8280016001018555821561239d579182015b8281111561239c578251825591602001919060010190612381565b5b5090506123aa91906123ae565b5090565b5b808211156123c75760008160009055506001016123af565b5090565b60006123de6123d984613270565b61324b565b905080838252602082019050828560208602820111156124015761240061366a565b5b60005b858110156124315781612417888261252f565b845260208401935060208301925050600181019050612404565b5050509392505050565b600061244e6124498461329c565b61324b565b905080838252602082019050828560208602820111156124715761247061366a565b5b60005b858110156124a157816124878882612650565b845260208401935060208301925050600181019050612474565b5050509392505050565b60006124be6124b9846132c8565b61324b565b9050828152602081018484840111156124da576124d961366f565b5b6124e5848285613499565b509392505050565b60006125006124fb846132f9565b61324b565b90508281526020810184848401111561251c5761251b61366f565b5b612527848285613499565b509392505050565b60008135905061253e81613bad565b92915050565b60008151905061255381613bad565b92915050565b600082601f83011261256e5761256d613665565b5b813561257e8482602086016123cb565b91505092915050565b600082601f83011261259c5761259b613665565b5b81356125ac84826020860161243b565b91505092915050565b6000813590506125c481613bc4565b92915050565b6000813590506125d981613bdb565b92915050565b6000815190506125ee81613bdb565b92915050565b600082601f83011261260957612608613665565b5b81356126198482602086016124ab565b91505092915050565b600082601f83011261263757612636613665565b5b81356126478482602086016124ed565b91505092915050565b60008135905061265f81613bf2565b92915050565b60006020828403121561267b5761267a613679565b5b60006126898482850161252f565b91505092915050565b6000602082840312156126a8576126a7613679565b5b60006126b684828501612544565b91505092915050565b600080604083850312156126d6576126d5613679565b5b60006126e48582860161252f565b92505060206126f58582860161252f565b9150509250929050565b600080600080600060a0868803121561271b5761271a613679565b5b60006127298882890161252f565b955050602061273a8882890161252f565b945050604086013567ffffffffffffffff81111561275b5761275a613674565b5b61276788828901612587565b935050606086013567ffffffffffffffff81111561278857612787613674565b5b61279488828901612587565b925050608086013567ffffffffffffffff8111156127b5576127b4613674565b5b6127c1888289016125f4565b9150509295509295909350565b600080600080600060a086880312156127ea576127e9613679565b5b60006127f88882890161252f565b95505060206128098882890161252f565b945050604061281a88828901612650565b935050606061282b88828901612650565b925050608086013567ffffffffffffffff81111561284c5761284b613674565b5b612858888289016125f4565b9150509295509295909350565b6000806040838503121561287c5761287b613679565b5b600061288a8582860161252f565b925050602061289b858286016125b5565b9150509250929050565b600080604083850312156128bc576128bb613679565b5b60006128ca8582860161252f565b92505060206128db85828601612650565b9150509250929050565b6000806000606084860312156128fe576128fd613679565b5b600061290c8682870161252f565b935050602061291d86828701612650565b925050604061292e86828701612650565b9150509250925092565b6000806000806080858703121561295257612951613679565b5b60006129608782880161252f565b945050602061297187828801612650565b935050604061298287828801612650565b925050606085013567ffffffffffffffff8111156129a3576129a2613674565b5b6129af878288016125f4565b91505092959194509250565b600080604083850312156129d2576129d1613679565b5b600083013567ffffffffffffffff8111156129f0576129ef613674565b5b6129fc85828601612559565b925050602083013567ffffffffffffffff811115612a1d57612a1c613674565b5b612a2985828601612587565b9150509250929050565b600060208284031215612a4957612a48613679565b5b6000612a57848285016125ca565b91505092915050565b600060208284031215612a7657612a75613679565b5b6000612a84848285016125df565b91505092915050565b600060208284031215612aa357612aa2613679565b5b600082013567ffffffffffffffff811115612ac157612ac0613674565b5b612acd84828501612622565b91505092915050565b600060208284031215612aec57612aeb613679565b5b6000612afa84828501612650565b91505092915050565b60008060408385031215612b1a57612b19613679565b5b6000612b2885828601612650565b9250506020612b398582860161252f565b9150509250929050565b60008060408385031215612b5a57612b59613679565b5b6000612b6885828601612650565b9250506020612b7985828601612650565b9150509250929050565b6000612b8f8383612e96565b60208301905092915050565b612ba481613425565b82525050565b6000612bb58261333a565b612bbf8185613368565b9350612bca8361332a565b8060005b83811015612bfb578151612be28882612b83565b9750612bed8361335b565b925050600181019050612bce565b5085935050505092915050565b612c1181613437565b82525050565b6000612c2282613345565b612c2c8185613379565b9350612c3c8185602086016134a8565b612c458161367e565b840191505092915050565b6000612c5b82613350565b612c65818561338a565b9350612c758185602086016134a8565b612c7e8161367e565b840191505092915050565b6000612c9660348361338a565b9150612ca18261369c565b604082019050919050565b6000612cb960288361338a565b9150612cc4826136eb565b604082019050919050565b6000612cdc602b8361338a565b9150612ce78261373a565b604082019050919050565b6000612cff60268361338a565b9150612d0a82613789565b604082019050919050565b6000612d2260248361338a565b9150612d2d826137d8565b604082019050919050565b6000612d4560298361338a565b9150612d5082613827565b604082019050919050565b6000612d6860258361338a565b9150612d7382613876565b604082019050919050565b6000612d8b60328361338a565b9150612d96826138c5565b604082019050919050565b6000612dae60238361338a565b9150612db982613914565b604082019050919050565b6000612dd1602a8361338a565b9150612ddc82613963565b604082019050919050565b6000612df460208361338a565b9150612dff826139b2565b602082019050919050565b6000612e1760298361338a565b9150612e22826139db565b604082019050919050565b6000612e3a60298361338a565b9150612e4582613a2a565b604082019050919050565b6000612e5d60288361338a565b9150612e6882613a79565b604082019050919050565b6000612e8060218361338a565b9150612e8b82613ac8565b604082019050919050565b612e9f8161348f565b82525050565b612eae8161348f565b82525050565b6000602082019050612ec96000830184612b9b565b92915050565b600060a082019050612ee46000830188612b9b565b612ef16020830187612b9b565b8181036040830152612f038186612baa565b90508181036060830152612f178185612baa565b90508181036080830152612f2b8184612c17565b90509695505050505050565b600060a082019050612f4c6000830188612b9b565b612f596020830187612b9b565b612f666040830186612ea5565b612f736060830185612ea5565b8181036080830152612f858184612c17565b90509695505050505050565b60006020820190508181036000830152612fab8184612baa565b905092915050565b60006040820190508181036000830152612fcd8185612baa565b90508181036020830152612fe18184612baa565b90509392505050565b6000602082019050612fff6000830184612c08565b92915050565b6000602082019050818103600083015261301f8184612c50565b905092915050565b6000602082019050818103600083015261304081612c89565b9050919050565b6000602082019050818103600083015261306081612cac565b9050919050565b6000602082019050818103600083015261308081612ccf565b9050919050565b600060208201905081810360008301526130a081612cf2565b9050919050565b600060208201905081810360008301526130c081612d15565b9050919050565b600060208201905081810360008301526130e081612d38565b9050919050565b6000602082019050818103600083015261310081612d5b565b9050919050565b6000602082019050818103600083015261312081612d7e565b9050919050565b6000602082019050818103600083015261314081612da1565b9050919050565b6000602082019050818103600083015261316081612dc4565b9050919050565b6000602082019050818103600083015261318081612de7565b9050919050565b600060208201905081810360008301526131a081612e0a565b9050919050565b600060208201905081810360008301526131c081612e2d565b9050919050565b600060208201905081810360008301526131e081612e50565b9050919050565b6000602082019050818103600083015261320081612e73565b9050919050565b600060208201905061321c6000830184612ea5565b92915050565b60006040820190506132376000830185612ea5565b6132446020830184612ea5565b9392505050565b6000613255613266565b9050613261828261350d565b919050565b6000604051905090565b600067ffffffffffffffff82111561328b5761328a613614565b5b602082029050602081019050919050565b600067ffffffffffffffff8211156132b7576132b6613614565b5b602082029050602081019050919050565b600067ffffffffffffffff8211156132e3576132e2613614565b5b6132ec8261367e565b9050602081019050919050565b600067ffffffffffffffff82111561331457613313613614565b5b61331d8261367e565b9050602081019050919050565b6000819050602082019050919050565b600081519050919050565b600081519050919050565b600081519050919050565b6000602082019050919050565b600082825260208201905092915050565b600082825260208201905092915050565b600082825260208201905092915050565b60006133a68261348f565b91506133b18361348f565b9250827fffffffffffffffffffffffffffffffffffffffffffffffffffffffffffffffff038211156133e6576133e5613587565b5b828201905092915050565b60006133fc8261348f565b91506134078361348f565b92508282101561341a57613419613587565b5b828203905092915050565b60006134308261346f565b9050919050565b60008115159050919050565b60007fffffffff0000000000000000000000000000000000000000000000000000000082169050919050565b600073ffffffffffffffffffffffffffffffffffffffff82169050919050565b6000819050919050565b82818337600083830152505050565b60005b838110156134c65780820151818401526020810190506134ab565b838111156134d5576000848401525b50505050565b600060028204905060018216806134f357607f821691505b60208210811415613507576135066135b6565b5b50919050565b6135168261367e565b810181811067ffffffffffffffff8211171561353557613534613614565b5b80604052505050565b60006135498261348f565b91507fffffffffffffffffffffffffffffffffffffffffffffffffffffffffffffffff82141561357c5761357b613587565b5b600182019050919050565b7f4e487b7100000000000000000000000000000000000000000000000000000000600052601160045260246000fd5b7f4e487b7100000000000000000000000000000000000000000000000000000000600052602260045260246000fd5b7f4e487b7100000000000000000000000000000000000000000000000000000000600052603260045260246000fd5b7f4e487b7100000000000000000000000000000000000000000000000000000000600052604160045260246000fd5b600060033d11156136625760046000803e61365f60005161368f565b90505b90565b600080fd5b600080fd5b600080fd5b600080fd5b600080fd5b6000601f19601f8301169050919050565b60008160e01c9050919050565b7f455243313135353a207472616e7366657220746f206e6f6e204552433131353560008201527f526563656976657220696d706c656d656e746572000000000000000000000000602082015250565b7f455243313135353a204552433131353552656365697665722072656a6563746560008201527f6420746f6b656e73000000000000000000000000000000000000000000000000602082015250565b7f455243313135353a2062616c616e636520717565727920666f7220746865207a60008201527f65726f2061646472657373000000000000000000000000000000000000000000602082015250565b7f4f776e61626c653a206e6577206f776e657220697320746865207a65726f206160008201527f6464726573730000000000000000000000000000000000000000000000000000602082015250565b7f455243313135353a206275726e20616d6f756e7420657863656564732062616c60008201527f616e636500000000000000000000000000000000000000000000000000000000602082015250565b7f455243313135353a2063616c6c6572206973206e6f74206f776e6572206e6f7260008201527f20617070726f7665640000000000000000000000000000000000000000000000602082015250565b7f455243313135353a207472616e7366657220746f20746865207a65726f20616460008201527f6472657373000000000000000000000000000000000000000000000000000000602082015250565b7f455243313135353a207472616e736665722063616c6c6572206973206e6f742060008201527f6f776e6572206e6f7220617070726f7665640000000000000000000000000000602082015250565b7f455243313135353a206275726e2066726f6d20746865207a65726f206164647260008201527f6573730000000000000000000000000000000000000000000000000000000000602082015250565b7f455243313135353a20696e73756666696369656e742062616c616e636520666f60008201527f72207472616e7366657200000000000000000000000000000000000000000000602082015250565b7f4f776e61626c653a2063616c6c6572206973206e6f7420746865206f776e6572600082015250565b7f455243313135353a2073657474696e6720617070726f76616c2073746174757360008201527f20666f722073656c660000000000000000000000000000000000000000000000602082015250565b7f455243313135353a206163636f756e747320616e6420696473206c656e67746860008201527f206d69736d617463680000000000000000000000000000000000000000000000602082015250565b7f455243313135353a2069647320616e6420616d6f756e7473206c656e6774682060008201527f6d69736d61746368000000000000000000000000000000000000000000000000602082015250565b7f455243313135353a206d696e7420746f20746865207a65726f2061646472657360008201527f7300000000000000000000000000000000000000000000000000000000000000602082015250565b600060443d1015613b2757613baa565b613b2f613266565b60043d036004823e80513d602482011167ffffffffffffffff82111715613b57575050613baa565b808201805167ffffffffffffffff811115613b755750505050613baa565b80602083010160043d038501811115613b92575050505050613baa565b613ba18260200185018661350d565b82955050505050505b90565b613bb681613425565b8114613bc157600080fd5b50565b613bcd81613437565b8114613bd857600080fd5b50565b613be481613443565b8114613bef57600080fd5b50565b613bfb8161348f565b8114613c0657600080fd5b5056fea2646970667358221220820ed1a48acc210b599f04ebd495d7de64d40ad8889dde4f591941fd651ff0e664736f6c63430008070033",
  "immutableReferences": {},
  "source": "// SPDX-License-Identifier: MIT\npragma solidity ^0.8.2;\n\nimport \"@openzeppelin/contracts/token/ERC1155/ERC1155.sol\";\nimport \"@openzeppelin/contracts/access/Ownable.sol\";\nimport \"@openzeppelin/contracts/utils/math/SafeMath.sol\";\nimport \"./Proposal.sol\";\n\ncontract Platform is ERC1155, Ownable {\n    using SafeMath for uint256;\n    mapping (uint256 => uint256) private _softcapPercentages;\n    mapping (uint256 => uint256) private _totalSupplies;\n    mapping (uint256 => address) private _mintOwners;\n    mapping (uint256 => address[]) public publishedProposals;\n\n    constructor() ERC1155(\"\") {\n    }\n    \n    function setURI(string memory newuri) public onlyOwner {\n        _setURI(newuri);\n    }\n\n    function getSoftcapPercentage(uint256 id) public view returns (uint256) {\n        return _softcapPercentages[id];\n    }\n\n    function setSoftcapPercentage(uint256 id, uint256 softcapPercentage) public onlyOwner {\n        _softcapPercentages[id] = softcapPercentage;\n    }\n\n    function getCirculatingSupply(uint256 id) public view returns (uint256) {\n        return _totalSupplies[id] - balanceOf(_mintOwners[id], id);\n    }\n\n    function _increaseTotalSupply(uint256 id, uint256 amount) private {\n        _totalSupplies[id] = _totalSupplies[id].add(amount);\n    }\n\n    function _decreaseTotalSupply(uint256 id, uint256 amount) private {\n        _totalSupplies[id] = _totalSupplies[id].sub(amount);\n    }\n    \n    function getMintOwner(uint256 id) public view returns (address) {\n        return _mintOwners[id];\n    }\n    \n    function addProposal(uint256 id, address contractAddress) public {\n        Proposal published = Proposal(contractAddress);\n        if(published.owner() == msg.sender) {\n            if(_doesItInclude(id, contractAddress) == false) {\n                address[] storage arr = publishedProposals[id];\n                arr.push(contractAddress);\n            }\n        }\n    }\n\n    function getProposalLength(uint256 id) public view returns(uint256) {\n        return publishedProposals[id].length;\n    }\n\n    function getProposalAddress(uint256 id, uint256 index) public view returns(address) {\n        for(uint256 i=0; i<publishedProposals[id].length; i++) {\n            if(i == index) {\n                address addr = publishedProposals[id][index];\n                return addr;\n            }\n        }\n\n        return 0x0000000000000000000000000000000000000000;\n    }\n\n    function _doesItInclude(uint256 id, address proposal) private view returns (bool) {\n        for(uint256 i=0; i<publishedProposals[id].length; i++) {\n            if(publishedProposals[id][i] == proposal) {\n                return true;\n            }\n        }\n\n        return false;\n    }\n\n    function mint(address account, uint256 id, uint256 amount, bytes memory data)\n        public\n        onlyOwner\n    {\n        _mint(account, id, amount, data);\n        _increaseTotalSupply(id, amount);\n        _mintOwners[id] = account;\n    }\n\n    function burn(address account, uint256 id, uint256 value) public virtual {\n        require(\n            account == _msgSender() || isApprovedForAll(account, _msgSender()),\n            \"ERC1155: caller is not owner nor approved\"\n        );\n\n        _burn(account, id, value);\n        _decreaseTotalSupply(id, value);\n    }\n}\n",
  "sourcePath": "/home/yavuz/Desktop/code/avalabs/truffle/contracts/Platform.sol",
  "compiler": {
    "name": "solc",
    "version": "0.8.7+commit.e28d00a7.Emscripten.clang"
  },
  "schemaVersion": "3.4.3",
  "updatedAt": "2021-12-05T10:13:06.072Z",
  "devdoc": {
    "kind": "dev",
    "methods": {
      "balanceOf(address,uint256)": {
        "details": "See {IERC1155-balanceOf}. Requirements: - `account` cannot be the zero address."
      },
      "balanceOfBatch(address[],uint256[])": {
        "details": "See {IERC1155-balanceOfBatch}. Requirements: - `accounts` and `ids` must have the same length."
      },
      "isApprovedForAll(address,address)": {
        "details": "See {IERC1155-isApprovedForAll}."
      },
      "owner()": {
        "details": "Returns the address of the current owner."
      },
      "renounceOwnership()": {
        "details": "Leaves the contract without owner. It will not be possible to call `onlyOwner` functions anymore. Can only be called by the current owner. NOTE: Renouncing ownership will leave the contract without an owner, thereby removing any functionality that is only available to the owner."
      },
      "safeBatchTransferFrom(address,address,uint256[],uint256[],bytes)": {
        "details": "See {IERC1155-safeBatchTransferFrom}."
      },
      "safeTransferFrom(address,address,uint256,uint256,bytes)": {
        "details": "See {IERC1155-safeTransferFrom}."
      },
      "setApprovalForAll(address,bool)": {
        "details": "See {IERC1155-setApprovalForAll}."
      },
      "supportsInterface(bytes4)": {
        "details": "See {IERC165-supportsInterface}."
      },
      "transferOwnership(address)": {
        "details": "Transfers ownership of the contract to a new account (`newOwner`). Can only be called by the current owner."
      },
      "uri(uint256)": {
        "details": "See {IERC1155MetadataURI-uri}. This implementation returns the same URI for *all* token types. It relies on the token type ID substitution mechanism https://eips.ethereum.org/EIPS/eip-1155#metadata[defined in the EIP]. Clients calling this function must replace the `\\{id\\}` substring with the actual token type ID."
      }
    },
    "version": 1
  },
  "userdoc": {
    "kind": "user",
    "methods": {},
    "version": 1
  }
}