{
  "contractName": "Proposal",
  "abi": [
    {
      "inputs": [
        {
          "internalType": "uint256",
          "name": "id_",
          "type": "uint256"
        },
        {
          "internalType": "string",
          "name": "title_",
          "type": "string"
        },
        {
          "internalType": "string",
          "name": "content_",
          "type": "string"
        },
        {
          "internalType": "uint256",
          "name": "softcapPeriod_",
          "type": "uint256"
        },
        {
          "internalType": "uint256",
          "name": "votingPeriod_",
          "type": "uint256"
        }
      ],
      "stateMutability": "nonpayable",
      "type": "constructor"
    },
    {
      "anonymous": false,
      "inputs": [
        {
          "indexed": true,
          "internalType": "address",
          "name": "previousOwner",
          "type": "address"
        },
        {
          "indexed": true,
          "internalType": "address",
          "name": "newOwner",
          "type": "address"
        }
      ],
      "name": "OwnershipTransferred",
      "type": "event"
    },
    {
      "inputs": [],
      "name": "_token",
      "outputs": [
        {
          "internalType": "contract Platform",
          "name": "",
          "type": "address"
        }
      ],
      "stateMutability": "view",
      "type": "function"
    },
    {
      "inputs": [],
      "name": "accepted",
      "outputs": [
        {
          "internalType": "uint256",
          "name": "",
          "type": "uint256"
        }
      ],
      "stateMutability": "view",
      "type": "function"
    },
    {
      "inputs": [],
      "name": "content",
      "outputs": [
        {
          "internalType": "string",
          "name": "",
          "type": "string"
        }
      ],
      "stateMutability": "view",
      "type": "function"
    },
    {
      "inputs": [],
      "name": "createdAt",
      "outputs": [
        {
          "internalType": "uint256",
          "name": "",
          "type": "uint256"
        }
      ],
      "stateMutability": "view",
      "type": "function"
    },
    {
      "inputs": [],
      "name": "id",
      "outputs": [
        {
          "internalType": "uint256",
          "name": "",
          "type": "uint256"
        }
      ],
      "stateMutability": "view",
      "type": "function"
    },
    {
      "inputs": [],
      "name": "isProposalValid",
      "outputs": [
        {
          "internalType": "bool",
          "name": "",
          "type": "bool"
        }
      ],
      "stateMutability": "view",
      "type": "function"
    },
    {
      "inputs": [
        {
          "internalType": "address",
          "name": "",
          "type": "address"
        },
        {
          "internalType": "address",
          "name": "",
          "type": "address"
        },
        {
          "internalType": "uint256[]",
          "name": "",
          "type": "uint256[]"
        },
        {
          "internalType": "uint256[]",
          "name": "",
          "type": "uint256[]"
        },
        {
          "internalType": "bytes",
          "name": "",
          "type": "bytes"
        }
      ],
      "name": "onERC1155BatchReceived",
      "outputs": [
        {
          "internalType": "bytes4",
          "name": "",
          "type": "bytes4"
        }
      ],
      "stateMutability": "nonpayable",
      "type": "function"
    },
    {
      "inputs": [
        {
          "internalType": "address",
          "name": "",
          "type": "address"
        },
        {
          "internalType": "address",
          "name": "",
          "type": "address"
        },
        {
          "internalType": "uint256",
          "name": "",
          "type": "uint256"
        },
        {
          "internalType": "uint256",
          "name": "",
          "type": "uint256"
        },
        {
          "internalType": "bytes",
          "name": "",
          "type": "bytes"
        }
      ],
      "name": "onERC1155Received",
      "outputs": [
        {
          "internalType": "bytes4",
          "name": "",
          "type": "bytes4"
        }
      ],
      "stateMutability": "nonpayable",
      "type": "function"
    },
    {
      "inputs": [],
      "name": "owner",
      "outputs": [
        {
          "internalType": "address",
          "name": "",
          "type": "address"
        }
      ],
      "stateMutability": "view",
      "type": "function"
    },
    {
      "inputs": [],
      "name": "rejected",
      "outputs": [
        {
          "internalType": "uint256",
          "name": "",
          "type": "uint256"
        }
      ],
      "stateMutability": "view",
      "type": "function"
    },
    {
      "inputs": [],
      "name": "renounceOwnership",
      "outputs": [],
      "stateMutability": "nonpayable",
      "type": "function"
    },
    {
      "inputs": [],
      "name": "softcapPercentage",
      "outputs": [
        {
          "internalType": "uint256",
          "name": "",
          "type": "uint256"
        }
      ],
      "stateMutability": "view",
      "type": "function"
    },
    {
      "inputs": [],
      "name": "softcapPeriod",
      "outputs": [
        {
          "internalType": "uint256",
          "name": "",
          "type": "uint256"
        }
      ],
      "stateMutability": "view",
      "type": "function"
    },
    {
      "inputs": [
        {
          "internalType": "address",
          "name": "",
          "type": "address"
        }
      ],
      "name": "supporters",
      "outputs": [
        {
          "internalType": "uint256",
          "name": "",
          "type": "uint256"
        }
      ],
      "stateMutability": "view",
      "type": "function"
    },
    {
      "inputs": [
        {
          "internalType": "bytes4",
          "name": "interfaceId",
          "type": "bytes4"
        }
      ],
      "name": "supportsInterface",
      "outputs": [
        {
          "internalType": "bool",
          "name": "",
          "type": "bool"
        }
      ],
      "stateMutability": "view",
      "type": "function"
    },
    {
      "inputs": [],
      "name": "title",
      "outputs": [
        {
          "internalType": "string",
          "name": "",
          "type": "string"
        }
      ],
      "stateMutability": "view",
      "type": "function"
    },
    {
      "inputs": [],
      "name": "totalSupported",
      "outputs": [
        {
          "internalType": "uint256",
          "name": "",
          "type": "uint256"
        }
      ],
      "stateMutability": "view",
      "type": "function"
    },
    {
      "inputs": [],
      "name": "totalVoteCount",
      "outputs": [
        {
          "internalType": "uint256",
          "name": "",
          "type": "uint256"
        }
      ],
      "stateMutability": "view",
      "type": "function"
    },
    {
      "inputs": [
        {
          "internalType": "address",
          "name": "newOwner",
          "type": "address"
        }
      ],
      "name": "transferOwnership",
      "outputs": [],
      "stateMutability": "nonpayable",
      "type": "function"
    },
    {
      "inputs": [
        {
          "internalType": "address",
          "name": "",
          "type": "address"
        }
      ],
      "name": "votes",
      "outputs": [
        {
          "internalType": "uint256",
          "name": "",
          "type": "uint256"
        }
      ],
      "stateMutability": "view",
      "type": "function"
    },
    {
      "inputs": [],
      "name": "votingClosesAt",
      "outputs": [
        {
          "internalType": "uint256",
          "name": "",
          "type": "uint256"
        }
      ],
      "stateMutability": "view",
      "type": "function"
    },
    {
      "inputs": [],
      "name": "votingStartsAt",
      "outputs": [
        {
          "internalType": "uint256",
          "name": "",
          "type": "uint256"
        }
      ],
      "stateMutability": "view",
      "type": "function"
    },
    {
      "inputs": [
        {
          "internalType": "uint256",
          "name": "amount",
          "type": "uint256"
        },
        {
          "internalType": "bool",
          "name": "choice",
          "type": "bool"
        }
      ],
      "name": "giveVote",
      "outputs": [],
      "stateMutability": "nonpayable",
      "type": "function"
    },
    {
      "inputs": [
        {
          "internalType": "uint256",
          "name": "amount",
          "type": "uint256"
        }
      ],
      "name": "supportProposal",
      "outputs": [],
      "stateMutability": "nonpayable",
      "type": "function"
    },
    {
      "inputs": [],
      "name": "fundBackVoters",
      "outputs": [],
      "stateMutability": "nonpayable",
      "type": "function"
    },
    {
      "inputs": [],
      "name": "calculateRequiredAmount",
      "outputs": [
        {
          "internalType": "uint256",
          "name": "",
          "type": "uint256"
        }
      ],
      "stateMutability": "view",
      "type": "function"
    }
  ],
  "bytecode": "0x60806040527352c84043cd9c865236f11d9fc9f56aa003c1f922600360006101000a81548173ffffffffffffffffffffffffffffffffffffffff021916908373ffffffffffffffffffffffffffffffffffffffff160217905550426008556001601260006101000a81548160ff02191690831515021790555060016013553480156200008a57600080fd5b5060405162003012380380620030128339818101604052810190620000b09190620005a1565b620000d0620000c46200034660201b60201c565b6200034e60201b60201c565b601354600360009054906101000a900473ffffffffffffffffffffffffffffffffffffffff1673ffffffffffffffffffffffffffffffffffffffff1662fdd58e33886040518363ffffffff1660e01b815260040162000131929190620006b0565b60206040518083038186803b1580156200014a57600080fd5b505afa1580156200015f573d6000803e3d6000fd5b505050506040513d601f19601f820116820180604052508101906200018591906200056f565b1015620001c9576040517f08c379a0000000000000000000000000000000000000000000000000000000008152600401620001c090620006dd565b60405180910390fd5b846004819055508360019080519060200190620001e89291906200042a565b508260029080519060200190620002019291906200042a565b5081600b819055506200023362015180836200021e9190620007e9565b426200041260201b620014241790919060201c565b6009819055506200027c620151806200025b84846200041260201b620014241790919060201c565b620002679190620007e9565b426200041260201b620014241790919060201c565b600a81905550600360009054906101000a900473ffffffffffffffffffffffffffffffffffffffff1673ffffffffffffffffffffffffffffffffffffffff166330f6dabc6004546040518263ffffffff1660e01b8152600401620002e19190620006ff565b60206040518083038186803b158015620002fa57600080fd5b505afa1580156200030f573d6000803e3d6000fd5b505050506040513d601f19601f820116820180604052508101906200033591906200056f565b600c81905550505050505062000a45565b600033905090565b60008060009054906101000a900473ffffffffffffffffffffffffffffffffffffffff169050816000806101000a81548173ffffffffffffffffffffffffffffffffffffffff021916908373ffffffffffffffffffffffffffffffffffffffff1602179055508173ffffffffffffffffffffffffffffffffffffffff168173ffffffffffffffffffffffffffffffffffffffff167f8be0079c531659141344cd1fd0a4f28419497f9722a3daafe3b4186f6b6457e060405160405180910390a35050565b600081836200042291906200078c565b905092915050565b8280546200043890620008be565b90600052602060002090601f0160209004810192826200045c5760008555620004a8565b82601f106200047757805160ff1916838001178555620004a8565b82800160010185558215620004a8579182015b82811115620004a75782518255916020019190600101906200048a565b5b509050620004b79190620004bb565b5090565b5b80821115620004d6576000816000905550600101620004bc565b5090565b6000620004f1620004eb8462000745565b6200071c565b90508281526020810184848401111562000510576200050f620009bc565b5b6200051d84828562000888565b509392505050565b600082601f8301126200053d576200053c620009b7565b5b81516200054f848260208601620004da565b91505092915050565b600081519050620005698162000a2b565b92915050565b600060208284031215620005885762000587620009c6565b5b6000620005988482850162000558565b91505092915050565b600080600080600060a08688031215620005c057620005bf620009c6565b5b6000620005d08882890162000558565b955050602086015167ffffffffffffffff811115620005f457620005f3620009c1565b5b620006028882890162000525565b945050604086015167ffffffffffffffff811115620006265762000625620009c1565b5b620006348882890162000525565b9350506060620006478882890162000558565b92505060806200065a8882890162000558565b9150509295509295909350565b62000672816200084a565b82525050565b6000620006876027836200077b565b91506200069482620009dc565b604082019050919050565b620006aa816200087e565b82525050565b6000604082019050620006c7600083018562000667565b620006d660208301846200069f565b9392505050565b60006020820190508181036000830152620006f88162000678565b9050919050565b60006020820190506200071660008301846200069f565b92915050565b6000620007286200073b565b9050620007368282620008f4565b919050565b6000604051905090565b600067ffffffffffffffff82111562000763576200076262000988565b5b6200076e82620009cb565b9050602081019050919050565b600082825260208201905092915050565b600062000799826200087e565b9150620007a6836200087e565b9250827fffffffffffffffffffffffffffffffffffffffffffffffffffffffffffffffff03821115620007de57620007dd6200092a565b5b828201905092915050565b6000620007f6826200087e565b915062000803836200087e565b9250817fffffffffffffffffffffffffffffffffffffffffffffffffffffffffffffffff04831182151516156200083f576200083e6200092a565b5b828202905092915050565b600062000857826200085e565b9050919050565b600073ffffffffffffffffffffffffffffffffffffffff82169050919050565b6000819050919050565b60005b83811015620008a85780820151818401526020810190506200088b565b83811115620008b8576000848401525b50505050565b60006002820490506001821680620008d757607f821691505b60208210811415620008ee57620008ed62000959565b5b50919050565b620008ff82620009cb565b810181811067ffffffffffffffff8211171562000921576200092062000988565b5b80604052505050565b7f4e487b7100000000000000000000000000000000000000000000000000000000600052601160045260246000fd5b7f4e487b7100000000000000000000000000000000000000000000000000000000600052602260045260246000fd5b7f4e487b7100000000000000000000000000000000000000000000000000000000600052604160045260246000fd5b600080fd5b600080fd5b600080fd5b600080fd5b6000601f19601f8301169050919050565b7f596f7520646f6e74206861766520656e6f75676820746f20637265617465207060008201527f726f706f73616c00000000000000000000000000000000000000000000000000602082015250565b62000a36816200087e565b811462000a4257600080fd5b50565b6125bd8062000a556000396000f3fe608060405234801561001057600080fd5b506004361061018e5760003560e01c80638a4d5a67116100de578063d13b0e6411610097578063ecd0c0c311610071578063ecd0c0c314610443578063f23a6e6114610461578063f2fde38b14610491578063f420a420146104ad5761018e565b8063d13b0e64146103d7578063d2e389ce146103f5578063d8bff5a5146104135761018e565b80638a4d5a67146103255780638da5cb5b14610343578063af640d0f14610361578063b9e1e2a31461037f578063bc197c8114610389578063cf09e0d0146103b95761018e565b80634a79d50c1161014b57806367fe5a0c1161012557806367fe5a0c146102c1578063715018a6146102df5780637eaf1707146102e9578063893d8f4c146103075761018e565b80634a79d50c146102555780636204257714610273578063647c75e2146102915761018e565b806301ced4a01461019357806301ffc9a7146101af57806318a7a403146101df5780631a10df25146101fb578063382eb467146102195780634277e0e114610237575b600080fd5b6101ad60048036038101906101a89190611b31565b6104cb565b005b6101c960048036038101906101c49190611aaa565b6109ac565b6040516101d69190611da3565b60405180910390f35b6101f960048036038101906101f49190611ad7565b610a26565b005b610203610d79565b6040516102109190611f16565b60405180910390f35b610221610d7f565b60405161022e9190611f16565b60405180910390f35b61023f610d85565b60405161024c9190611f16565b60405180910390f35b61025d610d8b565b60405161026a9190611df4565b60405180910390f35b61027b610e19565b6040516102889190611da3565b60405180910390f35b6102ab60048036038101906102a691906118ea565b610e2c565b6040516102b89190611f16565b60405180910390f35b6102c9610e44565b6040516102d69190611f16565b60405180910390f35b6102e7610e4a565b005b6102f1610ed2565b6040516102fe9190611f16565b60405180910390f35b61030f610ed8565b60405161031c9190611f16565b60405180910390f35b61032d610ede565b60405161033a9190611df4565b60405180910390f35b61034b610f6c565b6040516103589190611d30565b60405180910390f35b610369610f95565b6040516103769190611f16565b60405180910390f35b610387610f9b565b005b6103a3600480360381019061039e9190611944565b6111d7565b6040516103b09190611dbe565b60405180910390f35b6103c16111ec565b6040516103ce9190611f16565b60405180910390f35b6103df6111f2565b6040516103ec9190611f16565b60405180910390f35b6103fd6111f8565b60405161040a9190611f16565b60405180910390f35b61042d600480360381019061042891906118ea565b6112d3565b60405161043a9190611f16565b60405180910390f35b61044b6112eb565b6040516104589190611dd9565b60405180910390f35b61047b60048036038101906104769190611a13565b611311565b6040516104889190611dbe565b60405180910390f35b6104ab60048036038101906104a691906118ea565b611326565b005b6104b561141e565b6040516104c29190611f16565b60405180910390f35b60095442101580156104de5750600a5442105b61051d576040517f08c379a000000000000000000000000000000000000000000000000000000000815260040161051490611ef6565b60405180910390fd5b60011515601260009054906101000a900460ff16151514610573576040517f08c379a000000000000000000000000000000000000000000000000000000000815260040161056a90611e16565b60405180910390fd5b61057b6111f8565b60115410156105a85761058c61143a565b6000601260006101000a81548160ff0219169083151502179055505b600360009054906101000a900473ffffffffffffffffffffffffffffffffffffffff1673ffffffffffffffffffffffffffffffffffffffff16631425d1ef6004546040518263ffffffff1660e01b81526004016106059190611f16565b60206040518083038186803b15801561061d57600080fd5b505afa158015610631573d6000803e3d6000fd5b505050506040513d601f19601f820116820180604052508101906106559190611917565b73ffffffffffffffffffffffffffffffffffffffff163373ffffffffffffffffffffffffffffffffffffffff1614156106c3576040517f08c379a00000000000000000000000000000000000000000000000000000000081526004016106ba90611e96565b60405180910390fd5b60011515601260009054906101000a900460ff16151514156109a8576000600d60003373ffffffffffffffffffffffffffffffffffffffff1673ffffffffffffffffffffffffffffffffffffffff16815260200190815260200160002054141561078b57600e339080600181540180825580915050600190039060005260206000200160009091909190916101000a81548173ffffffffffffffffffffffffffffffffffffffff021916908373ffffffffffffffffffffffffffffffffffffffff1602179055505b8015610846576107e382600d60003373ffffffffffffffffffffffffffffffffffffffff1673ffffffffffffffffffffffffffffffffffffffff1681526020019081526020016000205461142490919063ffffffff16565b600d60003373ffffffffffffffffffffffffffffffffffffffff1673ffffffffffffffffffffffffffffffffffffffff1681526020019081526020016000208190555061083b8260055461142490919063ffffffff16565b6005819055506108f7565b61089882600d60003373ffffffffffffffffffffffffffffffffffffffff1673ffffffffffffffffffffffffffffffffffffffff1681526020019081526020016000205461142490919063ffffffff16565b600d60003373ffffffffffffffffffffffffffffffffffffffff1673ffffffffffffffffffffffffffffffffffffffff168152602001908152602001600020819055506108f08260065461142490919063ffffffff16565b6006819055505b61090c8260075461142490919063ffffffff16565b600781905550600360009054906101000a900473ffffffffffffffffffffffffffffffffffffffff1673ffffffffffffffffffffffffffffffffffffffff1663f242432a3330600454866040518563ffffffff1660e01b81526004016109759493929190611d4b565b600060405180830381600087803b15801561098f57600080fd5b505af11580156109a3573d6000803e3d6000fd5b505050505b5050565b60007f4e2312e0000000000000000000000000000000000000000000000000000000007bffffffffffffffffffffffffffffffffffffffffffffffffffffffff1916827bffffffffffffffffffffffffffffffffffffffffffffffffffffffff19161480610a1f5750610a1e826115be565b5b9050919050565b6009544210610a6a576040517f08c379a0000000000000000000000000000000000000000000000000000000008152600401610a6190611ed6565b60405180910390fd5b600360009054906101000a900473ffffffffffffffffffffffffffffffffffffffff1673ffffffffffffffffffffffffffffffffffffffff16631425d1ef6004546040518263ffffffff1660e01b8152600401610ac79190611f16565b60206040518083038186803b158015610adf57600080fd5b505afa158015610af3573d6000803e3d6000fd5b505050506040513d601f19601f82011682018060405250810190610b179190611917565b73ffffffffffffffffffffffffffffffffffffffff163373ffffffffffffffffffffffffffffffffffffffff161415610b85576040517f08c379a0000000000000000000000000000000000000000000000000000000008152600401610b7c90611e96565b60405180910390fd5b6000600f60003373ffffffffffffffffffffffffffffffffffffffff1673ffffffffffffffffffffffffffffffffffffffff168152602001908152602001600020541415610c31576010339080600181540180825580915050600190039060005260206000200160009091909190916101000a81548173ffffffffffffffffffffffffffffffffffffffff021916908373ffffffffffffffffffffffffffffffffffffffff1602179055505b610c8381600f60003373ffffffffffffffffffffffffffffffffffffffff1673ffffffffffffffffffffffffffffffffffffffff1681526020019081526020016000205461142490919063ffffffff16565b600f60003373ffffffffffffffffffffffffffffffffffffffff1673ffffffffffffffffffffffffffffffffffffffff16815260200190815260200160002081905550610cdb8160115461142490919063ffffffff16565b601181905550600360009054906101000a900473ffffffffffffffffffffffffffffffffffffffff1673ffffffffffffffffffffffffffffffffffffffff1663f242432a3330600454856040518563ffffffff1660e01b8152600401610d449493929190611d4b565b600060405180830381600087803b158015610d5e57600080fd5b505af1158015610d72573d6000803e3d6000fd5b5050505050565b60095481565b600b5481565b600c5481565b60018054610d98906121ad565b80601f0160208091040260200160405190810160405280929190818152602001828054610dc4906121ad565b8015610e115780601f10610de657610100808354040283529160200191610e11565b820191906000526020600020905b815481529060010190602001808311610df457829003601f168201915b505050505081565b601260009054906101000a900460ff1681565b600f6020528060005260406000206000915090505481565b60055481565b610e52611628565b73ffffffffffffffffffffffffffffffffffffffff16610e70610f6c565b73ffffffffffffffffffffffffffffffffffffffff1614610ec6576040517f08c379a0000000000000000000000000000000000000000000000000000000008152600401610ebd90611eb6565b60405180910390fd5b610ed06000611630565b565b600a5481565b60075481565b60028054610eeb906121ad565b80601f0160208091040260200160405190810160405280929190818152602001828054610f17906121ad565b8015610f645780601f10610f3957610100808354040283529160200191610f64565b820191906000526020600020905b815481529060010190602001808311610f4757829003601f168201915b505050505081565b60008060009054906101000a900473ffffffffffffffffffffffffffffffffffffffff16905090565b60045481565b6000600d60003373ffffffffffffffffffffffffffffffffffffffff1673ffffffffffffffffffffffffffffffffffffffff168152602001908152602001600020541161101d576040517f08c379a000000000000000000000000000000000000000000000000000000000815260040161101490611e56565b60405180910390fd5b600a544211611061576040517f08c379a000000000000000000000000000000000000000000000000000000000815260040161105890611e76565b60405180910390fd5b60005b600e805490508110156111d457600360009054906101000a900473ffffffffffffffffffffffffffffffffffffffff1673ffffffffffffffffffffffffffffffffffffffff1663f242432a30600e84815481106110c4576110c36122e6565b5b9060005260206000200160009054906101000a900473ffffffffffffffffffffffffffffffffffffffff16600454600d6000600e888154811061110a576111096122e6565b5b9060005260206000200160009054906101000a900473ffffffffffffffffffffffffffffffffffffffff1673ffffffffffffffffffffffffffffffffffffffff1673ffffffffffffffffffffffffffffffffffffffff168152602001908152602001600020546040518563ffffffff1660e01b815260040161118f9493929190611d4b565b600060405180830381600087803b1580156111a957600080fd5b505af11580156111bd573d6000803e3d6000fd5b5050505080806111cc90612210565b915050611064565b50565b600063bc197c8160e01b905095945050505050565b60085481565b60065481565b60006112ce60646112c0600c54600360009054906101000a900473ffffffffffffffffffffffffffffffffffffffff1673ffffffffffffffffffffffffffffffffffffffff16635a8d69c16004546040518263ffffffff1660e01b81526004016112629190611f16565b60206040518083038186803b15801561127a57600080fd5b505afa15801561128e573d6000803e3d6000fd5b505050506040513d601f19601f820116820180604052508101906112b29190611b04565b6116f490919063ffffffff16565b61170a90919063ffffffff16565b905090565b600d6020528060005260406000206000915090505481565b600360009054906101000a900473ffffffffffffffffffffffffffffffffffffffff1681565b600063f23a6e6160e01b905095945050505050565b61132e611628565b73ffffffffffffffffffffffffffffffffffffffff1661134c610f6c565b73ffffffffffffffffffffffffffffffffffffffff16146113a2576040517f08c379a000000000000000000000000000000000000000000000000000000000815260040161139990611eb6565b60405180910390fd5b600073ffffffffffffffffffffffffffffffffffffffff168173ffffffffffffffffffffffffffffffffffffffff161415611412576040517f08c379a000000000000000000000000000000000000000000000000000000000815260040161140990611e36565b60405180910390fd5b61141b81611630565b50565b60115481565b600081836114329190611fe0565b905092915050565b60005b6010805490508110156115ad57600360009054906101000a900473ffffffffffffffffffffffffffffffffffffffff1673ffffffffffffffffffffffffffffffffffffffff1663f242432a306010848154811061149d5761149c6122e6565b5b9060005260206000200160009054906101000a900473ffffffffffffffffffffffffffffffffffffffff16600454600f6000601088815481106114e3576114e26122e6565b5b9060005260206000200160009054906101000a900473ffffffffffffffffffffffffffffffffffffffff1673ffffffffffffffffffffffffffffffffffffffff1673ffffffffffffffffffffffffffffffffffffffff168152602001908152602001600020546040518563ffffffff1660e01b81526004016115689493929190611d4b565b600060405180830381600087803b15801561158257600080fd5b505af1158015611596573d6000803e3d6000fd5b5050505080806115a590612210565b91505061143d565b50601060006115bc9190611720565b565b60007f01ffc9a7000000000000000000000000000000000000000000000000000000007bffffffffffffffffffffffffffffffffffffffffffffffffffffffff1916827bffffffffffffffffffffffffffffffffffffffffffffffffffffffff1916149050919050565b600033905090565b60008060009054906101000a900473ffffffffffffffffffffffffffffffffffffffff169050816000806101000a81548173ffffffffffffffffffffffffffffffffffffffff021916908373ffffffffffffffffffffffffffffffffffffffff1602179055508173ffffffffffffffffffffffffffffffffffffffff168173ffffffffffffffffffffffffffffffffffffffff167f8be0079c531659141344cd1fd0a4f28419497f9722a3daafe3b4186f6b6457e060405160405180910390a35050565b600081836117029190612067565b905092915050565b600081836117189190612036565b905092915050565b508054600082559060005260206000209081019061173e9190611741565b50565b5b8082111561175a576000816000905550600101611742565b5090565b600061177161176c84611f56565b611f31565b9050808382526020820190508285602086028201111561179457611793612349565b5b60005b858110156117c457816117aa88826118c0565b845260208401935060208301925050600181019050611797565b5050509392505050565b60006117e16117dc84611f82565b611f31565b9050828152602081018484840111156117fd576117fc61234e565b5b61180884828561216b565b509392505050565b60008135905061181f8161252b565b92915050565b6000815190506118348161252b565b92915050565b600082601f83011261184f5761184e612344565b5b813561185f84826020860161175e565b91505092915050565b60008135905061187781612542565b92915050565b60008135905061188c81612559565b92915050565b600082601f8301126118a7576118a6612344565b5b81356118b78482602086016117ce565b91505092915050565b6000813590506118cf81612570565b92915050565b6000815190506118e481612570565b92915050565b600060208284031215611900576118ff612358565b5b600061190e84828501611810565b91505092915050565b60006020828403121561192d5761192c612358565b5b600061193b84828501611825565b91505092915050565b600080600080600060a086880312156119605761195f612358565b5b600061196e88828901611810565b955050602061197f88828901611810565b945050604086013567ffffffffffffffff8111156119a05761199f612353565b5b6119ac8882890161183a565b935050606086013567ffffffffffffffff8111156119cd576119cc612353565b5b6119d98882890161183a565b925050608086013567ffffffffffffffff8111156119fa576119f9612353565b5b611a0688828901611892565b9150509295509295909350565b600080600080600060a08688031215611a2f57611a2e612358565b5b6000611a3d88828901611810565b9550506020611a4e88828901611810565b9450506040611a5f888289016118c0565b9350506060611a70888289016118c0565b925050608086013567ffffffffffffffff811115611a9157611a90612353565b5b611a9d88828901611892565b9150509295509295909350565b600060208284031215611ac057611abf612358565b5b6000611ace8482850161187d565b91505092915050565b600060208284031215611aed57611aec612358565b5b6000611afb848285016118c0565b91505092915050565b600060208284031215611b1a57611b19612358565b5b6000611b28848285016118d5565b91505092915050565b60008060408385031215611b4857611b47612358565b5b6000611b56858286016118c0565b9250506020611b6785828601611868565b9150509250929050565b611b7a816120c1565b82525050565b611b89816120d3565b82525050565b611b98816120df565b82525050565b611ba781612135565b82525050565b6000611bb882611fb3565b611bc28185611fcf565b9350611bd281856020860161217a565b611bdb8161235d565b840191505092915050565b6000611bf3601383611fcf565b9150611bfe8261236e565b602082019050919050565b6000611c16602683611fcf565b9150611c2182612397565b604082019050919050565b6000611c39602383611fcf565b9150611c44826123e6565b604082019050919050565b6000611c5c601983611fcf565b9150611c6782612435565b602082019050919050565b6000611c7f600383611fbe565b9150611c8a8261245e565b602082019050919050565b6000611ca2601283611fcf565b9150611cad82612487565b602082019050919050565b6000611cc5602083611fcf565b9150611cd0826124b0565b602082019050919050565b6000611ce8601d83611fcf565b9150611cf3826124d9565b602082019050919050565b6000611d0b601983611fcf565b9150611d1682612502565b602082019050919050565b611d2a8161212b565b82525050565b6000602082019050611d456000830184611b71565b92915050565b600060a082019050611d606000830187611b71565b611d6d6020830186611b71565b611d7a6040830185611d21565b611d876060830184611d21565b8181036080830152611d9881611c72565b905095945050505050565b6000602082019050611db86000830184611b80565b92915050565b6000602082019050611dd36000830184611b8f565b92915050565b6000602082019050611dee6000830184611b9e565b92915050565b60006020820190508181036000830152611e0e8184611bad565b905092915050565b60006020820190508181036000830152611e2f81611be6565b9050919050565b60006020820190508181036000830152611e4f81611c09565b9050919050565b60006020820190508181036000830152611e6f81611c2c565b9050919050565b60006020820190508181036000830152611e8f81611c4f565b9050919050565b60006020820190508181036000830152611eaf81611c95565b9050919050565b60006020820190508181036000830152611ecf81611cb8565b9050919050565b60006020820190508181036000830152611eef81611cdb565b9050919050565b60006020820190508181036000830152611f0f81611cfe565b9050919050565b6000602082019050611f2b6000830184611d21565b92915050565b6000611f3b611f4c565b9050611f4782826121df565b919050565b6000604051905090565b600067ffffffffffffffff821115611f7157611f70612315565b5b602082029050602081019050919050565b600067ffffffffffffffff821115611f9d57611f9c612315565b5b611fa68261235d565b9050602081019050919050565b600081519050919050565b600082825260208201905092915050565b600082825260208201905092915050565b6000611feb8261212b565b9150611ff68361212b565b9250827fffffffffffffffffffffffffffffffffffffffffffffffffffffffffffffffff0382111561202b5761202a612259565b5b828201905092915050565b60006120418261212b565b915061204c8361212b565b92508261205c5761205b612288565b5b828204905092915050565b60006120728261212b565b915061207d8361212b565b9250817fffffffffffffffffffffffffffffffffffffffffffffffffffffffffffffffff04831182151516156120b6576120b5612259565b5b828202905092915050565b60006120cc8261210b565b9050919050565b60008115159050919050565b60007fffffffff0000000000000000000000000000000000000000000000000000000082169050919050565b600073ffffffffffffffffffffffffffffffffffffffff82169050919050565b6000819050919050565b600061214082612147565b9050919050565b600061215282612159565b9050919050565b60006121648261210b565b9050919050565b82818337600083830152505050565b60005b8381101561219857808201518184015260208101905061217d565b838111156121a7576000848401525b50505050565b600060028204905060018216806121c557607f821691505b602082108114156121d9576121d86122b7565b5b50919050565b6121e88261235d565b810181811067ffffffffffffffff8211171561220757612206612315565b5b80604052505050565b600061221b8261212b565b91507fffffffffffffffffffffffffffffffffffffffffffffffffffffffffffffffff82141561224e5761224d612259565b5b600182019050919050565b7f4e487b7100000000000000000000000000000000000000000000000000000000600052601160045260246000fd5b7f4e487b7100000000000000000000000000000000000000000000000000000000600052601260045260246000fd5b7f4e487b7100000000000000000000000000000000000000000000000000000000600052602260045260246000fd5b7f4e487b7100000000000000000000000000000000000000000000000000000000600052603260045260246000fd5b7f4e487b7100000000000000000000000000000000000000000000000000000000600052604160045260246000fd5b600080fd5b600080fd5b600080fd5b600080fd5b600080fd5b6000601f19601f8301169050919050565b7f50726f706f73616c20697320696e76616c696400000000000000000000000000600082015250565b7f4f776e61626c653a206e6577206f776e657220697320746865207a65726f206160008201527f6464726573730000000000000000000000000000000000000000000000000000602082015250565b7f596f75206d7573742075736520766f746520746f20636c6f73652070726f706f60008201527f73616c0000000000000000000000000000000000000000000000000000000000602082015250565b7f566f74696e67206973206e6f7420636c6f736564207965742e00000000000000600082015250565b7f3078300000000000000000000000000000000000000000000000000000000000600082015250565b7f4f776e65722063616e6e6f7420766f74652e0000000000000000000000000000600082015250565b7f4f776e61626c653a2063616c6c6572206973206e6f7420746865206f776e6572600082015250565b7f50726f706f73616c207374617274656420746f20626520766f7465642e000000600082015250565b7f4f757473696465206f6620766f74696e6720706572696f642e00000000000000600082015250565b612534816120c1565b811461253f57600080fd5b50565b61254b816120d3565b811461255657600080fd5b50565b612562816120df565b811461256d57600080fd5b50565b6125798161212b565b811461258457600080fd5b5056fea2646970667358221220db8490ac6d739c2cdfbd007400ce846f8cadc6d88e1fbb5fbee23b44be34caf064736f6c63430008070033",
  "immutableReferences": {},
  "source": "// SPDX-License-Identifier: UNLICENSED\npragma solidity ^0.8.0;\nimport \"@openzeppelin/contracts/token/ERC1155/ERC1155.sol\";\nimport \"@openzeppelin/contracts/token/ERC1155/utils/ERC1155Holder.sol\";\nimport \"@openzeppelin/contracts/utils/math/SafeMath.sol\";\nimport \"@openzeppelin/contracts/access/Ownable.sol\";\nimport \"./Platform.sol\";\n// import \"@openzeppelin/contracts/token/ERC20/ERC20.sol\";\n\ncontract Proposal is ERC1155Holder, Ownable {\n    using SafeMath for uint256;\n\n    string public title;\n    string public content;\n    Platform public _token = Platform(0x52C84043CD9c865236f11d9Fc9F56aa003c1f922);\n    // ERC20 public GOV = ERC20(0x6FD3810Ab88700606237C3DF21Ce74D486517dCE);\n\n    uint256 public id;\n    // uint256 public requiredAmountToVote;\n    uint256 public accepted;\n    uint256 public rejected;\n    uint256 public totalVoteCount;\n    uint256 public createdAt = block.timestamp;\n    uint256 public votingStartsAt;\n    uint256 public votingClosesAt;\n    uint256 public softcapPeriod;\n    uint256 public softcapPercentage;\n    mapping (address => uint256) public votes;\n    address[] private _uniqueVoters;\n    mapping (address => uint256) public supporters;\n    address[] private _uniqueSupporters;\n    uint256 public totalSupported;\n    bool public isProposalValid = true;\n\n    modifier softcapPeriodIsActive() {\n        require(block.timestamp < votingStartsAt, \"Proposal started to be voted.\");\n        _;\n    }\n\n    modifier votingIsActive() {\n        require(block.timestamp >= votingStartsAt && block.timestamp < votingClosesAt, \"Outside of voting period.\");\n        require(isProposalValid == true, \"Proposal is invalid\");\n        if(totalSupported < calculateRequiredAmount()) {\n            _fundBackSupporters();\n            isProposalValid = false;\n        }\n        _;\n    }\n\n    modifier votingIsClosed() {\n        require(block.timestamp > votingClosesAt, \"Voting is not closed yet.\");\n        _;\n    }\n\n    modifier isNotMintAccount() {\n        require(msg.sender != _token.getMintOwner(id), \"Owner cannot vote.\");\n        _;\n    }\n\n    modifier hasVoted() {\n        require(votes[msg.sender] > 0, \"You must use vote to close proposal\");\n        _;\n    }\n\n    modifier hasSupported() {\n        require(supporters[msg.sender] > 0, \"You have to support to distribute back\");\n        _;\n    }\n\n    /*modifier mustSupplyRequiredAmount(uint256 amount) {\n        require(amount >= requiredAmountToVote, \"Given amount is less than required amount to vote\");\n        _;\n    }*/\n    uint256 requiredAmountToCreate = 1;\n\n    constructor(\n        uint256 id_,\n        string memory title_,\n        string memory content_,\n        uint256 softcapPeriod_,\n        uint256 votingPeriod_\n        // uint256 requiredAmountToVote_\n    ) {\n        require(_token.balanceOf(msg.sender, id_) >= requiredAmountToCreate, \"You dont have enough to create proposal\");\n        id = id_;\n        title = title_;\n        content = content_;\n        softcapPeriod = softcapPeriod_;\n        votingStartsAt = block.timestamp.add(softcapPeriod_ * 1 days);\n        votingClosesAt = block.timestamp.add(votingPeriod_.add(softcapPeriod_) * 1 days);\n        // requiredAmountToVote = requiredAmountToVote_;\n        softcapPercentage = _token.getSoftcapPercentage(id);\n    }\n\n    function giveVote(uint256 amount, bool choice) public votingIsActive isNotMintAccount {\n        if(isProposalValid == true) {\n            // To make sure every voter is stored uniquely.\n            // No duplicate value exists.\n            if(votes[msg.sender] == 0) {\n                _uniqueVoters.push(msg.sender);\n            }\n\n            if(choice) {\n                votes[msg.sender] = votes[msg.sender].add(amount);\n                accepted = accepted.add(amount);\n            } else {\n                votes[msg.sender] = votes[msg.sender].add(amount);\n                rejected = rejected.add(amount);\n            }\n            \n            totalVoteCount = totalVoteCount.add(amount);\n            // GOV.transfer(address(this), 1);\n            _token.safeTransferFrom(msg.sender, address(this), id, amount, \"0x0\");\n        }\n    }\n\n    function supportProposal(uint256 amount) public softcapPeriodIsActive isNotMintAccount {\n        // To make sure every supporter is stored uniquely.\n        // No duplicate value exists.\n        if(supporters[msg.sender] == 0) {\n            _uniqueSupporters.push(msg.sender);\n        }\n\n        supporters[msg.sender] = supporters[msg.sender].add(amount);\n        totalSupported = totalSupported.add(amount);\n        // uint256 fee = 1 * 10 ** 18;\n        // GOV.approve(address(this),amount);\n        // GOV.transferFrom(msg.sender, address(this), fee);\n        _token.safeTransferFrom(msg.sender, address(this), id, amount, \"0x0\");\n    }\n\n    function fundBackVoters() public hasVoted votingIsClosed {\n        for(uint256 i = 0; i < _uniqueVoters.length; i++) {\n            _token.safeTransferFrom(address(this), _uniqueVoters[i], id, votes[_uniqueVoters[i]], \"0x0\");\n        }\n    }\n\n    /*function fundBackSupporters() public hasSupported votingIsActive {\n        for(uint256 i = 0; i < _uniqueSupporters.length; i++) {\n            _token.safeTransferFrom(address(this), _uniqueSupporters[i], id, supporters[_uniqueSupporters[i]], \"0x0\");\n        }\n    }*/\n\n    function _fundBackSupporters() private {\n        for(uint256 i = 0; i < _uniqueSupporters.length; i++) {\n            _token.safeTransferFrom(address(this), _uniqueSupporters[i], id, supporters[_uniqueSupporters[i]], \"0x0\");\n        }\n        delete _uniqueSupporters;\n    }\n\n    function calculateRequiredAmount() public view returns (uint256) {\n        return _token.getCirculatingSupply(id).mul(softcapPercentage).div(100);\n    }\n}",
  "sourcePath": "/home/yavuz/Desktop/code/avalabs/truffle/contracts/Proposal.sol",
  "compiler": {
    "name": "solc",
    "version": "0.8.7+commit.e28d00a7.Emscripten.clang"
  },
  "schemaVersion": "3.4.3",
  "updatedAt": "2021-12-05T10:13:06.094Z",
  "devdoc": {
    "kind": "dev",
    "methods": {
      "owner()": {
        "details": "Returns the address of the current owner."
      },
      "renounceOwnership()": {
        "details": "Leaves the contract without owner. It will not be possible to call `onlyOwner` functions anymore. Can only be called by the current owner. NOTE: Renouncing ownership will leave the contract without an owner, thereby removing any functionality that is only available to the owner."
      },
      "supportsInterface(bytes4)": {
        "details": "See {IERC165-supportsInterface}."
      },
      "transferOwnership(address)": {
        "details": "Transfers ownership of the contract to a new account (`newOwner`). Can only be called by the current owner."
      }
    },
    "version": 1
  },
  "userdoc": {
    "kind": "user",
    "methods": {},
    "version": 1
  }
}